{
  "contractName": "register",
  "abi": [
    {
      "inputs": [
        {
          "internalType": "address",
          "name": "",
          "type": "address"
        }
      ],
      "name": "spoc",
      "outputs": [
        {
          "internalType": "bool",
          "name": "",
          "type": "bool"
        }
      ],
      "stateMutability": "view",
      "type": "function",
      "constant": true
    },
    {
      "inputs": [
        {
          "internalType": "address",
          "name": "",
          "type": "address"
        }
      ],
      "name": "users",
      "outputs": [
        {
          "internalType": "bool",
          "name": "",
          "type": "bool"
        }
      ],
      "stateMutability": "view",
      "type": "function",
      "constant": true
    },
    {
      "inputs": [
        {
          "internalType": "address",
          "name": "name",
          "type": "address"
        },
        {
          "internalType": "uint256",
          "name": "password",
          "type": "uint256"
        },
        {
          "internalType": "string",
          "name": "email",
          "type": "string"
        }
      ],
      "name": "registerUser",
      "outputs": [],
      "stateMutability": "nonpayable",
      "type": "function"
    },
    {
      "inputs": [],
      "name": "viewUsers",
      "outputs": [
        {
          "internalType": "address[]",
          "name": "",
          "type": "address[]"
        },
        {
          "internalType": "uint256[]",
          "name": "",
          "type": "uint256[]"
        },
        {
          "internalType": "string[]",
          "name": "",
          "type": "string[]"
        }
      ],
      "stateMutability": "view",
      "type": "function",
      "constant": true
    },
    {
      "inputs": [
        {
          "internalType": "address",
          "name": "name",
          "type": "address"
        },
        {
          "internalType": "uint256",
          "name": "password",
          "type": "uint256"
        }
      ],
      "name": "loginUser",
      "outputs": [
        {
          "internalType": "bool",
          "name": "",
          "type": "bool"
        }
      ],
      "stateMutability": "view",
      "type": "function",
      "constant": true
    },
    {
      "inputs": [
        {
          "internalType": "address",
          "name": "a",
          "type": "address"
        }
      ],
      "name": "addSpoc",
      "outputs": [],
      "stateMutability": "nonpayable",
      "type": "function"
    },
    {
      "inputs": [
        {
          "internalType": "address",
          "name": "a",
          "type": "address"
        }
      ],
      "name": "checkSpoc",
      "outputs": [
        {
          "internalType": "bool",
          "name": "",
          "type": "bool"
        }
      ],
      "stateMutability": "view",
      "type": "function",
      "constant": true
    }
  ],
  "bytecode": "0x608060405234801561001057600080fd5b50610fe2806100206000396000f3fe608060405234801561001057600080fd5b506004361061007d5760003560e01c8063a87430ba1161005b578063a87430ba146100ee578063c947e2431461011e578063eb72346b1461014e578063ee40fac11461017e5761007d565b806314ebdb791461008257806333967996146100a2578063538597da146100d2575b600080fd5b61008a61019a565b60405161009993929190610ba5565b60405180910390f35b6100bc60048036038101906100b79190610c31565b61035d565b6040516100c99190610c79565b60405180910390f35b6100ec60048036038101906100e79190610df5565b6103cb565b005b61010860048036038101906101039190610c31565b610547565b6040516101159190610c79565b60405180910390f35b61013860048036038101906101339190610c31565b610567565b6040516101459190610c79565b60405180910390f35b61016860048036038101906101639190610e64565b610587565b6040516101759190610c79565b60405180910390f35b61019860048036038101906101939190610c31565b61073e565b005b60608060606000600160028280548060200260200160405190810160405280929190818152602001828054801561022657602002820191906000526020600020905b8160009054906101000a900473ffffffffffffffffffffffffffffffffffffffff1673ffffffffffffffffffffffffffffffffffffffff16815260200190600101908083116101dc575b505050505092508180548060200260200160405190810160405280929190818152602001828054801561027857602002820191906000526020600020905b815481526020019060010190808311610264575b5050505050915080805480602002602001604051908101604052809291908181526020016000905b8282101561034c5783829060005260206000200180546102bf90610ed3565b80601f01602080910402602001604051908101604052809291908181526020018280546102eb90610ed3565b80156103385780601f1061030d57610100808354040283529160200191610338565b820191906000526020600020905b81548152906001019060200180831161031b57829003601f168201915b5050505050815260200190600101906102a0565b505050509050925092509250909192565b600060011515600460008473ffffffffffffffffffffffffffffffffffffffff1673ffffffffffffffffffffffffffffffffffffffff16815260200190815260200160002060009054906101000a900460ff16151514156103c157600190506103c6565b600090505b919050565b600360008473ffffffffffffffffffffffffffffffffffffffff1673ffffffffffffffffffffffffffffffffffffffff16815260200190815260200160002060009054906101000a900460ff161561042257600080fd5b6001600360008573ffffffffffffffffffffffffffffffffffffffff1673ffffffffffffffffffffffffffffffffffffffff16815260200190815260200160002060006101000a81548160ff0219169083151502179055506000839080600181540180825580915050600190039060005260206000200160009091909190916101000a81548173ffffffffffffffffffffffffffffffffffffffff021916908373ffffffffffffffffffffffffffffffffffffffff16021790555060018290806001815401808255809150506001900390600052602060002001600090919091909150556002819080600181540180825580915050600190039060005260206000200160009091909190915090805190602001906105419291906107ef565b50505050565b60036020528060005260406000206000915054906101000a900460ff1681565b60046020528060005260406000206000915054906101000a900460ff1681565b6000806000600360008673ffffffffffffffffffffffffffffffffffffffff1673ffffffffffffffffffffffffffffffffffffffff16815260200190815260200160002060009054906101000a900460ff166105e257600080fd5b60008080549050111561068b57600091505b60008054905082101561068a578473ffffffffffffffffffffffffffffffffffffffff166000838154811061062c5761062b610f05565b5b9060005260206000200160009054906101000a900473ffffffffffffffffffffffffffffffffffffffff1673ffffffffffffffffffffffffffffffffffffffff161415610677578190505b818061068290610f63565b9250506105f4565b5b83600182815481106106a05761069f610f05565b5b906000526020600020015414801561072157508473ffffffffffffffffffffffffffffffffffffffff16600082815481106106de576106dd610f05565b5b9060005260206000200160009054906101000a900473ffffffffffffffffffffffffffffffffffffffff1673ffffffffffffffffffffffffffffffffffffffff16145b1561073157600192505050610738565b6000925050505b92915050565b600360008273ffffffffffffffffffffffffffffffffffffffff1673ffffffffffffffffffffffffffffffffffffffff16815260200190815260200160002060009054906101000a900460ff1661079457600080fd5b6001600460008373ffffffffffffffffffffffffffffffffffffffff1673ffffffffffffffffffffffffffffffffffffffff16815260200190815260200160002060006101000a81548160ff02191690831515021790555050565b8280546107fb90610ed3565b90600052602060002090601f01602090048101928261081d5760008555610864565b82601f1061083657805160ff1916838001178555610864565b82800160010185558215610864579182015b82811115610863578251825591602001919060010190610848565b5b5090506108719190610875565b5090565b5b8082111561088e576000816000905550600101610876565b5090565b600081519050919050565b600082825260208201905092915050565b6000819050602082019050919050565b600073ffffffffffffffffffffffffffffffffffffffff82169050919050565b60006108e9826108be565b9050919050565b6108f9816108de565b82525050565b600061090b83836108f0565b60208301905092915050565b6000602082019050919050565b600061092f82610892565b610939818561089d565b9350610944836108ae565b8060005b8381101561097557815161095c88826108ff565b975061096783610917565b925050600181019050610948565b5085935050505092915050565b600081519050919050565b600082825260208201905092915050565b6000819050602082019050919050565b6000819050919050565b6109c1816109ae565b82525050565b60006109d383836109b8565b60208301905092915050565b6000602082019050919050565b60006109f782610982565b610a01818561098d565b9350610a0c8361099e565b8060005b83811015610a3d578151610a2488826109c7565b9750610a2f836109df565b925050600181019050610a10565b5085935050505092915050565b600081519050919050565b600082825260208201905092915050565b6000819050602082019050919050565b600081519050919050565b600082825260208201905092915050565b60005b83811015610ab0578082015181840152602081019050610a95565b83811115610abf576000848401525b50505050565b6000601f19601f8301169050919050565b6000610ae182610a76565b610aeb8185610a81565b9350610afb818560208601610a92565b610b0481610ac5565b840191505092915050565b6000610b1b8383610ad6565b905092915050565b6000602082019050919050565b6000610b3b82610a4a565b610b458185610a55565b935083602082028501610b5785610a66565b8060005b85811015610b935784840389528151610b748582610b0f565b9450610b7f83610b23565b925060208a01995050600181019050610b5b565b50829750879550505050505092915050565b60006060820190508181036000830152610bbf8186610924565b90508181036020830152610bd381856109ec565b90508181036040830152610be78184610b30565b9050949350505050565b6000604051905090565b600080fd5b600080fd5b610c0e816108de565b8114610c1957600080fd5b50565b600081359050610c2b81610c05565b92915050565b600060208284031215610c4757610c46610bfb565b5b6000610c5584828501610c1c565b91505092915050565b60008115159050919050565b610c7381610c5e565b82525050565b6000602082019050610c8e6000830184610c6a565b92915050565b610c9d816109ae565b8114610ca857600080fd5b50565b600081359050610cba81610c94565b92915050565b600080fd5b600080fd5b7f4e487b7100000000000000000000000000000000000000000000000000000000600052604160045260246000fd5b610d0282610ac5565b810181811067ffffffffffffffff82111715610d2157610d20610cca565b5b80604052505050565b6000610d34610bf1565b9050610d408282610cf9565b919050565b600067ffffffffffffffff821115610d6057610d5f610cca565b5b610d6982610ac5565b9050602081019050919050565b82818337600083830152505050565b6000610d98610d9384610d45565b610d2a565b905082815260208101848484011115610db457610db3610cc5565b5b610dbf848285610d76565b509392505050565b600082601f830112610ddc57610ddb610cc0565b5b8135610dec848260208601610d85565b91505092915050565b600080600060608486031215610e0e57610e0d610bfb565b5b6000610e1c86828701610c1c565b9350506020610e2d86828701610cab565b925050604084013567ffffffffffffffff811115610e4e57610e4d610c00565b5b610e5a86828701610dc7565b9150509250925092565b60008060408385031215610e7b57610e7a610bfb565b5b6000610e8985828601610c1c565b9250506020610e9a85828601610cab565b9150509250929050565b7f4e487b7100000000000000000000000000000000000000000000000000000000600052602260045260246000fd5b60006002820490506001821680610eeb57607f821691505b60208210811415610eff57610efe610ea4565b5b50919050565b7f4e487b7100000000000000000000000000000000000000000000000000000000600052603260045260246000fd5b7f4e487b7100000000000000000000000000000000000000000000000000000000600052601160045260246000fd5b6000610f6e826109ae565b91507fffffffffffffffffffffffffffffffffffffffffffffffffffffffffffffffff821415610fa157610fa0610f34565b5b60018201905091905056fea264697066735822122091fcf8930b137b12eb6928b6641f897399397812065c6f58e64de584c542c0b364736f6c634300080c0033",
  "immutableReferences": {},
  "source": "pragma solidity ^0.8.12;\r\n\r\ncontract register {\r\n\r\n    address[] _name;\r\n    uint[] _password;\r\n    string[] _email;\r\n\r\n    mapping(address => bool) public users;\r\n    mapping(address => bool) public spoc;\r\n\r\n    function registerUser(address name,uint password,string memory email) public{\r\n\r\n        require(!users[name]);\r\n\r\n        users[name]=true;\r\n        _name.push(name);\r\n        _password.push(password);\r\n        _email.push(email);\r\n    }\r\n\r\n    function viewUsers() public view returns(address[] memory,uint[] memory,string[] memory) {\r\n\r\n        return(_name,_password,_email);\r\n    }\r\n\r\n    function loginUser(address name,uint password) public view returns(bool) {\r\n\r\n        uint i;\r\n        uint j=0;\r\n        require(users[name]);\r\n\r\n        if(_name.length>0) {\r\n            for(i=0;i<_name.length;i++) {\r\n                if(((_name[i])==(name))){\r\n                    j=i;\r\n                }\r\n            }\r\n        }\r\n\r\n        if(_password[j]==password && _name[j]==name) {\r\n            return true;\r\n        } else {\r\n            return false;\r\n        }\r\n    }\r\n\r\n    function addSpoc(address a) public {\r\n\r\n        require(users[a]);\r\n        spoc[a]=true;\r\n\r\n    }\r\n\r\n    function checkSpoc(address a) public view returns(bool) {\r\n        if(spoc[a]==true)\r\n            return true;\r\n        else\r\n            return false;\r\n    }\r\n\r\n}",
  "sourcePath": "D:\\maddy-workspace\\sacet-major-projects-2022\\blockchain-event-detection\\contracts\\register.sol",
  "compiler": {
    "name": "solc",
    "version": "0.8.12+commit.f00d7308.Emscripten.clang"
  },
  "schemaVersion": "3.4.5",
  "updatedAt": "2022-04-26T16:58:58.800Z",
  "networkType": "ethereum",
  "devdoc": {
    "kind": "dev",
    "methods": {},
    "version": 1
  },
  "userdoc": {
    "kind": "user",
    "methods": {},
    "version": 1
  }
}